:100000000C9477000C9429020C9429020C94290278
:100010000C9429020C9429020C9429020C942902B4
:100020000C9429020C9429020C9429020C942902A4
:100030000C9429020C9429020C9429020C94290294
:100040000C9429020C9429020C9429020C94290284
:100050000C9429020C9429020C9429020C94290274
:100060000C9429020C9429020C9429020C94290264
:100070000C9429020C9429020C9429020C94E4009B
:100080000C9429020C9429020C9429020C94290244
:100090000C9429020C9429020C9429020C94290234
:1000A0000C9429020C9429020C9429020C94290224
:1000B0000C9429020C9429020C9429020C94290214
:1000C0000C9429020C9429020C9429020C94290204
:1000D0000C9429020C9429020C9429020C942902F4
:1000E0000C9429020C9429024000408480008091E5
:1000F00001108F7C806080688093011011241FBEE6
:10010000CFEFCDBFDFE7DEBFE8EEF0E040E019C0A3
:10011000B791A79137912791079107FD0EC097914D
:100120008791EF01F92FE82F0BBF07900D92A217CF
:10013000B307D9F7FE011BBE04C01D92A217B30777
:10014000E1F7ED3EF40721F70E94DB010C94FC017E
:04015000F894FFCF51
:100154005B4C4F475D3A20436F6D6D616E64206365
:100164006F6D706C65746564207375636365737318
:1001740066756C6C79207769746820636F64652098
:100184002230222E0A005B4C4F475D3A20496E769E
:10019400616C696420636F6D6D616E64206E616D66
:0401A40065210A00C7
:1001A80048656C6C6F20776F726C64210A006C650F
:0F01B800645F746F67676C650068656C6C6F00DF
:1001C8001F920F920FB60F9211240BB60F922F9316
:1001D8003F934F935F936F937F938F939F93AF93C7
:1001E800BF93EF93FF9380912008803221F18A30EA
:1001F80069F08D3001F1E091824091E09E0F90937B
:100208008240F0E0E259FF4B808315C08EE690E40F
:100218000E94320110928240EEE6F0E40190002044
:10022800E9F73197AF014E56504460E070E08EE632
:1002380090E40E940702FF91EF91BF91AF919F91C7
:100248008F917F916F915F914F913F912F910F9077
:0C0258000BBE0F900FBE0F901F9018956A
:10026400CF92DF92EF92FF920F931F93CF93DF937E
:100274007C0102E010E4C0E0D0E0B801C7010E94B4
:10028400EE01892B91F486E18C9FF0018D9FF00D96
:100294001124E050F04C0190F081E02D099584E5A3
:1002A40091E80E94A30180E00BC021960A5E1F4FD3
:1002B400C630D10511F78AE891E80E94A30181E0D4
:1002C400DF91CF911F910F91FF90EF90DF90CF902E
:0202D40008958B
:1002D600CF93DF93CDB7DEB76697CDBFDEBFFB0109
:1002E60001900020E9F73197E61BF70B759708F5A3
:1002F60020918340253010F01092834089839A83A1
:10030600CE0103960E941802A091834081E08A0FD5
:100316008093834086E1A89FD0011124A050B04C61
:1003260086E1FE01319601900D928A95E1F781E012
:1003360001C080E06696CDBFDEBFDF91CF91089504
:10034600EF92FF920F931F93CF93DF938C017C0163
:10035600C0E0D0E006C0F70181917F010E94100243
:100366002196F80101900020E9F73197E01BF10B87
:10037600CE17DF0780F3DF91CF911F910F91FF908A
:04038600EF90089557
:10038A00E0E2F8E083E896E08087918783E087835C
:10039A00A0E4B4E081E011968C93119782E0129662
:0C03AA008C9380E8858380EC86830895A6
:1003B60080E4809341040E94C501789466EB71E85D
:1003C60085E292E00E946B0161EC71E880E292E0C6
:0603D6000E946B01FFCF45
:1003DC00DC01FB019D912191921303C09111FACF85
:0C03EC00292F892F90E0821B91090895B1
:1003F800EC010E942E020E942D02CE010E942F02C3
:06040800CE010E942B0250
:10040E00FC01480F591FE417F50711F06193FBCF5C
:02041E0008953F
:10042000E0E2F8E0948195FFFDCF809322080895E3
:10043000FC01DB012D91BD0121932111FACF08951B
:0A04400088EA91E80E94A3010895E4
:08044A0080E48093470408954B
:040452000C94000006
:040456000E94A80058
:02045A00089503
:02045C00089501
:02045E000895FF
:00000001FF
