:100000000C9477000C9471020C9471020C947102A0
:100010000C9471020C9471020C9471020C94710294
:100020000C9471020C9471020C9471020C94710284
:100030000C9471020C9471020C9471020C94710274
:100040000C9471020C9471020C9471020C94710264
:100050000C9471020C9471020C9471020C94710254
:100060000C9471020C9471020C9471020C94710244
:100070000C9471020C9471020C9471020C94FA00AD
:100080000C9471020C9471020C9471020C94710224
:100090000C9471020C9471020C9471020C94710214
:1000A0000C9471020C9471020C9471020C94710204
:1000B0000C9471020C9471020C9471020C947102F4
:1000C0000C9471020C9471020C9471020C947102E4
:1000D0000C9471020C9471020C9471020C947102D4
:1000E0000C9471020C947102400040848000809155
:1000F00001108F7C806080688093011011241FBEE6
:10010000CFEFCDBFDFE7DEBFE8EEF0E040E019C0A3
:10011000B791A79137912791079107FD0EC097914D
:100120008791EF01F92FE82F0BBF07900D92A217CF
:10013000B307D9F7FE011BBE04C01D92A217B30777
:10014000E1F7ED3EF40721F70E9407020C94440208
:04015000F894FFCF51
:100154005B4C4F475D3A20436F6D6D616E64206365
:100164006F6D706C65746564207375636365737318
:1001740066756C6C79207769746820636F64652098
:100184002230222E0A005B4C4F475D3A20496E769E
:10019400616C696420636F6D6D616E64206E616D66
:1001A40065210A005B4C4F475D3A204C697374200B
:1001B4006F6620617661696C61626C6520636F6D46
:0B01C4006D616E64733A0A002E20008B
:1001CF0048656C6C6F20776F726C64210A006C65E8
:1001DF00645F746F67676C650068656C6C6F006C4B
:0401EF0069737400BC
:1001F4001F920F920FB60F9211240BB60F922F93EA
:100204003F934F935F936F937F938F939F93AF939A
:10021400BF93EF93FF9380912008803221F18A30BD
:1002240069F08D3001F1E091824091E09E0F90934E
:100234008240F0E0E259FF4B808315C08EE690E4E3
:100244000E94480110928240EEE6F0E40190002002
:10025400E9F73197AF014E56504460E070E08EE606
:1002640090E40E944F02FF91EF91BF91AF919F9153
:100274008F917F916F915F914F913F912F910F904B
:0C0284000BBE0F900FBE0F901F9018953E
:10029000CF92DF92EF92FF920F931F93CF93DF9352
:1002A0007C0102E010E4C0E0D0E0B801C7010E9488
:1002B0003602892BA9F486E18C9FF0018D9FF00D09
:1002C0001124E050F04C0190F081E02D099584E577
:1002D00091E80E94E50184E00E94580280E00EC08F
:1002E00021960A5E1F4FC630D105F9F68AE891E8DB
:1002F0000E94E50184E00E94580281E0DF91CF91E5
:0E0300001F910F91FF90EF90DF90CF90089526
:10030E00CF93DF93CDB7DEB76697CDBFDEBFFB01D0
:10031E0001900020E9F73197E61BF70B759708F56A
:10032E0020918340253010F01092834089839A8368
:10033E00CE0103960E946002A091834081E08A0F55
:10034E008093834086E1A89FD0011124A050B04C29
:10035E0086E1FE01319601900D928A95E1F781E0DA
:10036E0001C080E06696CDBFDEBFDF91CF910895CC
:10037E000F931F93CF9388EA91E80E94E50100E066
:10038E0010E4C1E3F80180819181892B71F08C2FEB
:10039E000E9458028CEC91E80E94E501C801029679
:1003AE000E94E5018AE00E9458020A5E1F4FCF5F4D
:0C03BE00C63341F7CF911F910F910895B5
:1003CA00EF92FF920F931F93CF93DF938C017C01DF
:1003DA00C0E0D0E006C0F70181917F010E94580277
:1003EA002196F80101900020E9F73197E01BF10B03
:1003FA00CE17DF0780F3DF91CF911F910F91FF9006
:04040A00EF900895D2
:10040E0080E4809341040E94200278946DED71E89F
:10041E008DE692E00E94870168EE71E888E692E030
:10042E000E9487016EEE71E88FEB91E00E948701CA
:02043E00FFCFEE
:10044000E0E2F8E083E896E08087918783E08783A5
:10045000A0E4B4E081E011968C93119782E01296AB
:0C0460008C9380E8858380EC86830895EF
:10046C00DC01FB019D912191921303C09111FACFF4
:0C047C00292F892F90E0821B9109089520
:10048800EC010E9476020E947502CE010E9477025A
:06049800CE010E94730278
:10049E00FC01480F591FE417F50711F06193FBCFCC
:0204AE000895AF
:1004B000E0E2F8E0948195FFFDCF80932208089553
:1004C000FC01DB012D91BD0121932111FACF08958B
:0A04D0008FEC91E80E94E501089509
:0804DA0080E4809347040895BB
:0404E2000C94000076
:0404E6000E94A800C8
:0204EA00089573
:0204EC00089571
:0204EE0008956F
:00000001FF
